{
  "_format": "hh-sol-artifact-1",
  "contractName": "VoteWeb3",
  "sourceName": "contracts/Main.sol",
  "abi": [
    {
      "inputs": [],
      "stateMutability": "nonpayable",
      "type": "constructor"
    },
    {
      "anonymous": false,
      "inputs": [
        {
          "components": [
            {
              "internalType": "address",
              "name": "candidateAddress",
              "type": "address"
            },
            {
              "internalType": "string",
              "name": "candidateName",
              "type": "string"
            },
            {
              "internalType": "enum VoteWeb3.Symbol",
              "name": "candidateSymbol",
              "type": "uint8"
            }
          ],
          "indexed": false,
          "internalType": "struct VoteWeb3.Candidate",
          "name": "",
          "type": "tuple"
        }
      ],
      "name": "CandidateAdded",
      "type": "event"
    },
    {
      "anonymous": false,
      "inputs": [
        {
          "components": [
            {
              "internalType": "address",
              "name": "candidateAddress",
              "type": "address"
            },
            {
              "internalType": "string",
              "name": "candidateName",
              "type": "string"
            },
            {
              "internalType": "enum VoteWeb3.Symbol",
              "name": "candidateSymbol",
              "type": "uint8"
            }
          ],
          "indexed": false,
          "internalType": "struct VoteWeb3.Candidate",
          "name": "",
          "type": "tuple"
        }
      ],
      "name": "CandidateRequested",
      "type": "event"
    },
    {
      "anonymous": false,
      "inputs": [
        {
          "components": [
            {
              "internalType": "uint256",
              "name": "electionIndex",
              "type": "uint256"
            },
            {
              "components": [
                {
                  "internalType": "address",
                  "name": "candidateAddress",
                  "type": "address"
                },
                {
                  "internalType": "string",
                  "name": "candidateName",
                  "type": "string"
                },
                {
                  "internalType": "enum VoteWeb3.Symbol",
                  "name": "candidateSymbol",
                  "type": "uint8"
                }
              ],
              "internalType": "struct VoteWeb3.Candidate[]",
              "name": "approvedcandidates",
              "type": "tuple[]"
            },
            {
              "components": [
                {
                  "internalType": "address",
                  "name": "candidateAddress",
                  "type": "address"
                },
                {
                  "internalType": "string",
                  "name": "candidateName",
                  "type": "string"
                },
                {
                  "internalType": "enum VoteWeb3.Symbol",
                  "name": "candidateSymbol",
                  "type": "uint8"
                }
              ],
              "internalType": "struct VoteWeb3.Candidate[]",
              "name": "requestedCandidates",
              "type": "tuple[]"
            },
            {
              "internalType": "uint256",
              "name": "startDateAndTime",
              "type": "uint256"
            },
            {
              "internalType": "uint256",
              "name": "endDateAndTime",
              "type": "uint256"
            },
            {
              "internalType": "uint256",
              "name": "totalVotes",
              "type": "uint256"
            },
            {
              "internalType": "uint256",
              "name": "winnerVotes",
              "type": "uint256"
            },
            {
              "internalType": "address",
              "name": "winner",
              "type": "address"
            },
            {
              "internalType": "enum VoteWeb3.ElectionState",
              "name": "electionState",
              "type": "uint8"
            }
          ],
          "indexed": false,
          "internalType": "struct VoteWeb3.Election",
          "name": "",
          "type": "tuple"
        }
      ],
      "name": "ElectionCreated",
      "type": "event"
    },
    {
      "anonymous": false,
      "inputs": [
        {
          "components": [
            {
              "internalType": "uint256",
              "name": "electionIndex",
              "type": "uint256"
            },
            {
              "components": [
                {
                  "internalType": "address",
                  "name": "candidateAddress",
                  "type": "address"
                },
                {
                  "internalType": "string",
                  "name": "candidateName",
                  "type": "string"
                },
                {
                  "internalType": "enum VoteWeb3.Symbol",
                  "name": "candidateSymbol",
                  "type": "uint8"
                }
              ],
              "internalType": "struct VoteWeb3.Candidate[]",
              "name": "approvedcandidates",
              "type": "tuple[]"
            },
            {
              "components": [
                {
                  "internalType": "address",
                  "name": "candidateAddress",
                  "type": "address"
                },
                {
                  "internalType": "string",
                  "name": "candidateName",
                  "type": "string"
                },
                {
                  "internalType": "enum VoteWeb3.Symbol",
                  "name": "candidateSymbol",
                  "type": "uint8"
                }
              ],
              "internalType": "struct VoteWeb3.Candidate[]",
              "name": "requestedCandidates",
              "type": "tuple[]"
            },
            {
              "internalType": "uint256",
              "name": "startDateAndTime",
              "type": "uint256"
            },
            {
              "internalType": "uint256",
              "name": "endDateAndTime",
              "type": "uint256"
            },
            {
              "internalType": "uint256",
              "name": "totalVotes",
              "type": "uint256"
            },
            {
              "internalType": "uint256",
              "name": "winnerVotes",
              "type": "uint256"
            },
            {
              "internalType": "address",
              "name": "winner",
              "type": "address"
            },
            {
              "internalType": "enum VoteWeb3.ElectionState",
              "name": "electionState",
              "type": "uint8"
            }
          ],
          "indexed": false,
          "internalType": "struct VoteWeb3.Election",
          "name": "",
          "type": "tuple"
        }
      ],
      "name": "ElectionEnded",
      "type": "event"
    },
    {
      "anonymous": false,
      "inputs": [
        {
          "components": [
            {
              "internalType": "uint256",
              "name": "electionIndex",
              "type": "uint256"
            },
            {
              "components": [
                {
                  "internalType": "address",
                  "name": "candidateAddress",
                  "type": "address"
                },
                {
                  "internalType": "string",
                  "name": "candidateName",
                  "type": "string"
                },
                {
                  "internalType": "enum VoteWeb3.Symbol",
                  "name": "candidateSymbol",
                  "type": "uint8"
                }
              ],
              "internalType": "struct VoteWeb3.Candidate[]",
              "name": "approvedcandidates",
              "type": "tuple[]"
            },
            {
              "components": [
                {
                  "internalType": "address",
                  "name": "candidateAddress",
                  "type": "address"
                },
                {
                  "internalType": "string",
                  "name": "candidateName",
                  "type": "string"
                },
                {
                  "internalType": "enum VoteWeb3.Symbol",
                  "name": "candidateSymbol",
                  "type": "uint8"
                }
              ],
              "internalType": "struct VoteWeb3.Candidate[]",
              "name": "requestedCandidates",
              "type": "tuple[]"
            },
            {
              "internalType": "uint256",
              "name": "startDateAndTime",
              "type": "uint256"
            },
            {
              "internalType": "uint256",
              "name": "endDateAndTime",
              "type": "uint256"
            },
            {
              "internalType": "uint256",
              "name": "totalVotes",
              "type": "uint256"
            },
            {
              "internalType": "uint256",
              "name": "winnerVotes",
              "type": "uint256"
            },
            {
              "internalType": "address",
              "name": "winner",
              "type": "address"
            },
            {
              "internalType": "enum VoteWeb3.ElectionState",
              "name": "electionState",
              "type": "uint8"
            }
          ],
          "indexed": false,
          "internalType": "struct VoteWeb3.Election",
          "name": "",
          "type": "tuple"
        }
      ],
      "name": "ElectionStarted",
      "type": "event"
    },
    {
      "anonymous": false,
      "inputs": [
        {
          "components": [
            {
              "internalType": "uint256",
              "name": "electionIndex",
              "type": "uint256"
            },
            {
              "components": [
                {
                  "internalType": "address",
                  "name": "candidateAddress",
                  "type": "address"
                },
                {
                  "internalType": "string",
                  "name": "candidateName",
                  "type": "string"
                },
                {
                  "internalType": "enum VoteWeb3.Symbol",
                  "name": "candidateSymbol",
                  "type": "uint8"
                }
              ],
              "internalType": "struct VoteWeb3.Candidate[]",
              "name": "approvedcandidates",
              "type": "tuple[]"
            },
            {
              "components": [
                {
                  "internalType": "address",
                  "name": "candidateAddress",
                  "type": "address"
                },
                {
                  "internalType": "string",
                  "name": "candidateName",
                  "type": "string"
                },
                {
                  "internalType": "enum VoteWeb3.Symbol",
                  "name": "candidateSymbol",
                  "type": "uint8"
                }
              ],
              "internalType": "struct VoteWeb3.Candidate[]",
              "name": "requestedCandidates",
              "type": "tuple[]"
            },
            {
              "internalType": "uint256",
              "name": "startDateAndTime",
              "type": "uint256"
            },
            {
              "internalType": "uint256",
              "name": "endDateAndTime",
              "type": "uint256"
            },
            {
              "internalType": "uint256",
              "name": "totalVotes",
              "type": "uint256"
            },
            {
              "internalType": "uint256",
              "name": "winnerVotes",
              "type": "uint256"
            },
            {
              "internalType": "address",
              "name": "winner",
              "type": "address"
            },
            {
              "internalType": "enum VoteWeb3.ElectionState",
              "name": "electionState",
              "type": "uint8"
            }
          ],
          "indexed": false,
          "internalType": "struct VoteWeb3.Election",
          "name": "",
          "type": "tuple"
        }
      ],
      "name": "GetElection",
      "type": "event"
    },
    {
      "inputs": [
        {
          "internalType": "uint256",
          "name": "_electionIndex",
          "type": "uint256"
        },
        {
          "internalType": "address",
          "name": "_candidateAddress",
          "type": "address"
        }
      ],
      "name": "approveCandidate",
      "outputs": [],
      "stateMutability": "nonpayable",
      "type": "function"
    },
    {
      "inputs": [
        {
          "internalType": "uint256",
          "name": "startTime",
          "type": "uint256"
        },
        {
          "internalType": "uint256",
          "name": "endTime",
          "type": "uint256"
        }
      ],
      "name": "createElection",
      "outputs": [],
      "stateMutability": "nonpayable",
      "type": "function"
    },
    {
      "inputs": [
        {
          "internalType": "uint256",
          "name": "_electionIndex",
          "type": "uint256"
        }
      ],
      "name": "discard",
      "outputs": [],
      "stateMutability": "nonpayable",
      "type": "function"
    },
    {
      "inputs": [
        {
          "internalType": "uint256",
          "name": "_electionIndex",
          "type": "uint256"
        }
      ],
      "name": "end",
      "outputs": [],
      "stateMutability": "nonpayable",
      "type": "function"
    },
    {
      "inputs": [],
      "name": "getAllElection",
      "outputs": [
        {
          "components": [
            {
              "internalType": "uint256",
              "name": "electionIndex",
              "type": "uint256"
            },
            {
              "components": [
                {
                  "internalType": "address",
                  "name": "candidateAddress",
                  "type": "address"
                },
                {
                  "internalType": "string",
                  "name": "candidateName",
                  "type": "string"
                },
                {
                  "internalType": "enum VoteWeb3.Symbol",
                  "name": "candidateSymbol",
                  "type": "uint8"
                }
              ],
              "internalType": "struct VoteWeb3.Candidate[]",
              "name": "approvedcandidates",
              "type": "tuple[]"
            },
            {
              "components": [
                {
                  "internalType": "address",
                  "name": "candidateAddress",
                  "type": "address"
                },
                {
                  "internalType": "string",
                  "name": "candidateName",
                  "type": "string"
                },
                {
                  "internalType": "enum VoteWeb3.Symbol",
                  "name": "candidateSymbol",
                  "type": "uint8"
                }
              ],
              "internalType": "struct VoteWeb3.Candidate[]",
              "name": "requestedCandidates",
              "type": "tuple[]"
            },
            {
              "internalType": "uint256",
              "name": "startDateAndTime",
              "type": "uint256"
            },
            {
              "internalType": "uint256",
              "name": "endDateAndTime",
              "type": "uint256"
            },
            {
              "internalType": "uint256",
              "name": "totalVotes",
              "type": "uint256"
            },
            {
              "internalType": "uint256",
              "name": "winnerVotes",
              "type": "uint256"
            },
            {
              "internalType": "address",
              "name": "winner",
              "type": "address"
            },
            {
              "internalType": "enum VoteWeb3.ElectionState",
              "name": "electionState",
              "type": "uint8"
            }
          ],
          "internalType": "struct VoteWeb3.Election[]",
          "name": "",
          "type": "tuple[]"
        }
      ],
      "stateMutability": "view",
      "type": "function"
    },
    {
      "inputs": [
        {
          "internalType": "uint256",
          "name": "_electionIndex",
          "type": "uint256"
        }
      ],
      "name": "getElection",
      "outputs": [
        {
          "components": [
            {
              "internalType": "uint256",
              "name": "electionIndex",
              "type": "uint256"
            },
            {
              "components": [
                {
                  "internalType": "address",
                  "name": "candidateAddress",
                  "type": "address"
                },
                {
                  "internalType": "string",
                  "name": "candidateName",
                  "type": "string"
                },
                {
                  "internalType": "enum VoteWeb3.Symbol",
                  "name": "candidateSymbol",
                  "type": "uint8"
                }
              ],
              "internalType": "struct VoteWeb3.Candidate[]",
              "name": "approvedcandidates",
              "type": "tuple[]"
            },
            {
              "components": [
                {
                  "internalType": "address",
                  "name": "candidateAddress",
                  "type": "address"
                },
                {
                  "internalType": "string",
                  "name": "candidateName",
                  "type": "string"
                },
                {
                  "internalType": "enum VoteWeb3.Symbol",
                  "name": "candidateSymbol",
                  "type": "uint8"
                }
              ],
              "internalType": "struct VoteWeb3.Candidate[]",
              "name": "requestedCandidates",
              "type": "tuple[]"
            },
            {
              "internalType": "uint256",
              "name": "startDateAndTime",
              "type": "uint256"
            },
            {
              "internalType": "uint256",
              "name": "endDateAndTime",
              "type": "uint256"
            },
            {
              "internalType": "uint256",
              "name": "totalVotes",
              "type": "uint256"
            },
            {
              "internalType": "uint256",
              "name": "winnerVotes",
              "type": "uint256"
            },
            {
              "internalType": "address",
              "name": "winner",
              "type": "address"
            },
            {
              "internalType": "enum VoteWeb3.ElectionState",
              "name": "electionState",
              "type": "uint8"
            }
          ],
          "internalType": "struct VoteWeb3.Election",
          "name": "",
          "type": "tuple"
        }
      ],
      "stateMutability": "nonpayable",
      "type": "function"
    },
    {
      "inputs": [],
      "name": "getManager",
      "outputs": [
        {
          "internalType": "address",
          "name": "",
          "type": "address"
        }
      ],
      "stateMutability": "view",
      "type": "function"
    },
    {
      "inputs": [
        {
          "internalType": "uint256",
          "name": "_electionIndex",
          "type": "uint256"
        },
        {
          "internalType": "address",
          "name": "_candidateAddress",
          "type": "address"
        }
      ],
      "name": "getVotes",
      "outputs": [
        {
          "internalType": "uint256",
          "name": "",
          "type": "uint256"
        }
      ],
      "stateMutability": "nonpayable",
      "type": "function"
    },
    {
      "inputs": [
        {
          "internalType": "uint256",
          "name": "_electionIndex",
          "type": "uint256"
        },
        {
          "internalType": "address",
          "name": "_candidateAddress",
          "type": "address"
        },
        {
          "internalType": "string",
          "name": "_candidateName",
          "type": "string"
        },
        {
          "internalType": "enum VoteWeb3.Symbol",
          "name": "_candidateSymbol",
          "type": "uint8"
        }
      ],
      "name": "requestCandidate",
      "outputs": [],
      "stateMutability": "nonpayable",
      "type": "function"
    },
    {
      "inputs": [
        {
          "internalType": "uint256",
          "name": "_electionIndex",
          "type": "uint256"
        }
      ],
      "name": "start",
      "outputs": [],
      "stateMutability": "nonpayable",
      "type": "function"
    },
    {
      "inputs": [
        {
          "internalType": "uint256",
          "name": "_electionIndex",
          "type": "uint256"
        },
        {
          "internalType": "address",
          "name": "_candidateAddress",
          "type": "address"
        }
      ],
      "name": "vote",
      "outputs": [],
      "stateMutability": "nonpayable",
      "type": "function"
    }
  ],
  "bytecode": "0x60806040526000600655600060115534801561001a57600080fd5b50336000806101000a81548173ffffffffffffffffffffffffffffffffffffffff021916908373ffffffffffffffffffffffffffffffffffffffff1602179055506137cc8061006a6000396000f3fe608060405234801561001057600080fd5b50600436106100a95760003560e01c80637e8f2b0c116100715780637e8f2b0c1461015057806395805dad1461016c5780639d71077714610188578063c2c084c5146101b8578063d5009584146101d4578063fb7b0a12146101f2576100a9565b806302d947ef146100ae5780630ad24528146100ca57806322edefbe146100e65780635597f083146101025780636819736014610120575b600080fd5b6100c860048036038101906100c3919061230f565b61020e565b005b6100e460048036038101906100df919061234f565b6105f1565b005b61010060048036038101906100fb919061237c565b6107e5565b005b61010a610a7a565b60405161011791906127c9565b60405180910390f35b61013a6004803603810190610135919061230f565b610ea1565b60405161014791906127fa565b60405180910390f35b61016a6004803603810190610165919061234f565b610f54565b005b6101866004803603810190610181919061234f565b610fa5565b005b6101a2600480360381019061019d919061234f565b611153565b6040516101af91906128e1565b60405180910390f35b6101d260048036038101906101cd9190612a5d565b6115af565b005b6101dc611a6f565b6040516101e99190612aef565b60405180910390f35b61020c6004803603810190610207919061230f565b611a98565b005b60016003811115610222576102216124c2565b5b6008838154811061023657610235612b0a565b5b906000526020600020906008020160070160149054906101000a900460ff166003811115610267576102666124c2565b5b146102a7576040517f08c379a000000000000000000000000000000000000000000000000000000000815260040161029e90612b96565b60405180910390fd5b600015156002600084815260200190815260200160002060003373ffffffffffffffffffffffffffffffffffffffff1673ffffffffffffffffffffffffffffffffffffffff16815260200190815260200160002060009054906101000a900460ff1615151461034b576040517f08c379a000000000000000000000000000000000000000000000000000000000815260040161034290612c02565b60405180910390fd5b600015156005600084815260200190815260200160002060003373ffffffffffffffffffffffffffffffffffffffff1673ffffffffffffffffffffffffffffffffffffffff16815260200190815260200160002060009054906101000a900460ff161515146103ef576040517f08c379a00000000000000000000000000000000000000000000000000000000081526004016103e690612c6e565b60405180910390fd5b60016005600084815260200190815260200160002060003373ffffffffffffffffffffffffffffffffffffffff1673ffffffffffffffffffffffffffffffffffffffff16815260200190815260200160002060006101000a81548160ff0219169083151502179055506008828154811061046c5761046b612b0a565b5b9060005260206000209060080201600501600081548092919061048e90612cbd565b9190505550600180600084815260200190815260200160002060008373ffffffffffffffffffffffffffffffffffffffff1673ffffffffffffffffffffffffffffffffffffffff16815260200190815260200160002060008282546104f39190612d05565b925050819055506001600083815260200190815260200160002060008273ffffffffffffffffffffffffffffffffffffffff1673ffffffffffffffffffffffffffffffffffffffff1681526020019081526020016000205460065410156105ed576001600083815260200190815260200160002060008273ffffffffffffffffffffffffffffffffffffffff1673ffffffffffffffffffffffffffffffffffffffff1681526020019081526020016000205460068190555080600760006101000a81548173ffffffffffffffffffffffffffffffffffffffff021916908373ffffffffffffffffffffffffffffffffffffffff1602179055505b5050565b60016003811115610605576106046124c2565b5b6008828154811061061957610618612b0a565b5b906000526020600020906008020160070160149054906101000a900460ff16600381111561064a576106496124c2565b5b1461068a576040517f08c379a000000000000000000000000000000000000000000000000000000000815260040161068190612b96565b60405180910390fd5b6002600882815481106106a05761069f612b0a565b5b906000526020600020906008020160070160146101000a81548160ff021916908360038111156106d3576106d26124c2565b5b0217905550600760009054906101000a900473ffffffffffffffffffffffffffffffffffffffff166008828154811061070f5761070e612b0a565b5b906000526020600020906008020160070160006101000a81548173ffffffffffffffffffffffffffffffffffffffff021916908373ffffffffffffffffffffffffffffffffffffffff1602179055506006546008828154811061077557610774612b0a565b5b9060005260206000209060080201600601819055507fe14693998056d62f8b00c8b5c5345717cc53809bcb7d51ee729ae8e23127b2a2600882815481106107bf576107be612b0a565b5b90600052602060002090600802016040516107da9190613125565b60405180910390a150565b60008054906101000a900473ffffffffffffffffffffffffffffffffffffffff1673ffffffffffffffffffffffffffffffffffffffff163373ffffffffffffffffffffffffffffffffffffffff1614610873576040517f08c379a000000000000000000000000000000000000000000000000000000000815260040161086a90613193565b60405180910390fd5b6011546009600001819055506000600960070160146101000a81548160ff021916908360038111156108a8576108a76124c2565b5b02179055506008600990806001815401808255809150506001900390600052602060002090600802016000909190919091506000820154816000015560018201816001019080546108fa929190611fda565b506002820181600201908054610911929190611fda565b50600382015481600301556004820154816004015560058201548160050155600682015481600601556007820160009054906101000a900473ffffffffffffffffffffffffffffffffffffffff168160070160006101000a81548173ffffffffffffffffffffffffffffffffffffffff021916908373ffffffffffffffffffffffffffffffffffffffff1602179055506007820160149054906101000a900460ff168160070160146101000a81548160ff021916908360038111156109d9576109d86124c2565b5b021790555050506109ec60115483611f68565b6109f860115482611fa1565b60116000815480929190610a0b90612cbd565b91905055507f5c054162ba63c5220bb31285913e6ecb9cb2f1f85053291cc893c41e412744e660086001601154610a4291906131b3565b81548110610a5357610a52612b0a565b5b9060005260206000209060080201604051610a6e9190613125565b60405180910390a15050565b60606008805480602002602001604051908101604052809291908181526020016000905b82821015610e985783829060005260206000209060080201604051806101200160405290816000820154815260200160018201805480602002602001604051908101604052809291908181526020016000905b82821015610c4657838290600052602060002090600302016040518060600160405290816000820160009054906101000a900473ffffffffffffffffffffffffffffffffffffffff1673ffffffffffffffffffffffffffffffffffffffff1673ffffffffffffffffffffffffffffffffffffffff168152602001600182018054610b7a90612df3565b80601f0160208091040260200160405190810160405280929190818152602001828054610ba690612df3565b8015610bf35780601f10610bc857610100808354040283529160200191610bf3565b820191906000526020600020905b815481529060010190602001808311610bd657829003601f168201915b505050505081526020016002820160009054906101000a900460ff166002811115610c2157610c206124c2565b5b6002811115610c3357610c326124c2565b5b8152505081526020019060010190610af1565b50505050815260200160028201805480602002602001604051908101604052809291908181526020016000905b82821015610dc857838290600052602060002090600302016040518060600160405290816000820160009054906101000a900473ffffffffffffffffffffffffffffffffffffffff1673ffffffffffffffffffffffffffffffffffffffff1673ffffffffffffffffffffffffffffffffffffffff168152602001600182018054610cfc90612df3565b80601f0160208091040260200160405190810160405280929190818152602001828054610d2890612df3565b8015610d755780601f10610d4a57610100808354040283529160200191610d75565b820191906000526020600020905b815481529060010190602001808311610d5857829003601f168201915b505050505081526020016002820160009054906101000a900460ff166002811115610da357610da26124c2565b5b6002811115610db557610db46124c2565b5b8152505081526020019060010190610c73565b505050508152602001600382015481526020016004820154815260200160058201548152602001600682015481526020016007820160009054906101000a900473ffffffffffffffffffffffffffffffffffffffff1673ffffffffffffffffffffffffffffffffffffffff1673ffffffffffffffffffffffffffffffffffffffff1681526020016007820160149054906101000a900460ff166003811115610e7357610e726124c2565b5b6003811115610e8557610e846124c2565b5b8152505081526020019060010190610a9e565b50505050905090565b60007f5b690772900f502caef69d9ca05818aa9f733ab38693a187942e0352f34af2e660088481548110610ed857610ed7612b0a565b5b9060005260206000209060080201604051610ef39190613125565b60405180910390a16001600084815260200190815260200160002060008373ffffffffffffffffffffffffffffffffffffffff1673ffffffffffffffffffffffffffffffffffffffff16815260200190815260200160002054905092915050565b600360088281548110610f6a57610f69612b0a565b5b906000526020600020906008020160070160146101000a81548160ff02191690836003811115610f9d57610f9c6124c2565b5b021790555050565b60006003811115610fb957610fb86124c2565b5b60088281548110610fcd57610fcc612b0a565b5b906000526020600020906008020160070160149054906101000a900460ff166003811115610ffe57610ffd6124c2565b5b1461103e576040517f08c379a000000000000000000000000000000000000000000000000000000000815260040161103590613233565b60405180910390fd5b60026008828154811061105457611053612b0a565b5b90600052602060002090600802016001018054905010156110aa576040517f08c379a00000000000000000000000000000000000000000000000000000000081526004016110a19061329f565b60405180910390fd5b6001600882815481106110c0576110bf612b0a565b5b906000526020600020906008020160070160146101000a81548160ff021916908360038111156110f3576110f26124c2565b5b02179055507fed442fd771216450f710ad56149db97ae42e386c1d6849604c6409b02b7dc4c06008828154811061112d5761112c612b0a565b5b90600052602060002090600802016040516111489190613125565b60405180910390a150565b61115b6120eb565b7f5b690772900f502caef69d9ca05818aa9f733ab38693a187942e0352f34af2e6600883815481106111905761118f612b0a565b5b90600052602060002090600802016040516111ab9190613125565b60405180910390a1600882815481106111c7576111c6612b0a565b5b9060005260206000209060080201604051806101200160405290816000820154815260200160018201805480602002602001604051908101604052809291908181526020016000905b8282101561136557838290600052602060002090600302016040518060600160405290816000820160009054906101000a900473ffffffffffffffffffffffffffffffffffffffff1673ffffffffffffffffffffffffffffffffffffffff1673ffffffffffffffffffffffffffffffffffffffff16815260200160018201805461129990612df3565b80601f01602080910402602001604051908101604052809291908181526020018280546112c590612df3565b80156113125780601f106112e757610100808354040283529160200191611312565b820191906000526020600020905b8154815290600101906020018083116112f557829003601f168201915b505050505081526020016002820160009054906101000a900460ff1660028111156113405761133f6124c2565b5b6002811115611352576113516124c2565b5b8152505081526020019060010190611210565b50505050815260200160028201805480602002602001604051908101604052809291908181526020016000905b828210156114e757838290600052602060002090600302016040518060600160405290816000820160009054906101000a900473ffffffffffffffffffffffffffffffffffffffff1673ffffffffffffffffffffffffffffffffffffffff1673ffffffffffffffffffffffffffffffffffffffff16815260200160018201805461141b90612df3565b80601f016020809104026020016040519081016040528092919081815260200182805461144790612df3565b80156114945780601f1061146957610100808354040283529160200191611494565b820191906000526020600020905b81548152906001019060200180831161147757829003601f168201915b505050505081526020016002820160009054906101000a900460ff1660028111156114c2576114c16124c2565b5b60028111156114d4576114d36124c2565b5b8152505081526020019060010190611392565b505050508152602001600382015481526020016004820154815260200160058201548152602001600682015481526020016007820160009054906101000a900473ffffffffffffffffffffffffffffffffffffffff1673ffffffffffffffffffffffffffffffffffffffff1673ffffffffffffffffffffffffffffffffffffffff1681526020016007820160149054906101000a900460ff166003811115611592576115916124c2565b5b60038111156115a4576115a36124c2565b5b815250509050919050565b600060038111156115c3576115c26124c2565b5b600885815481106115d7576115d6612b0a565b5b906000526020600020906008020160070160149054906101000a900460ff166003811115611608576116076124c2565b5b14611648576040517f08c379a000000000000000000000000000000000000000000000000000000000815260040161163f90613233565b60405180910390fd5b600015156002600086815260200190815260200160002060008573ffffffffffffffffffffffffffffffffffffffff1673ffffffffffffffffffffffffffffffffffffffff16815260200190815260200160002060009054906101000a900460ff161515146116ec576040517f08c379a00000000000000000000000000000000000000000000000000000000081526004016116e390613331565b60405180910390fd5b600015156003600086815260200190815260200160002060008573ffffffffffffffffffffffffffffffffffffffff1673ffffffffffffffffffffffffffffffffffffffff16815260200190815260200160002060009054906101000a900460ff16151514611790576040517f08c379a00000000000000000000000000000000000000000000000000000000081526004016117879061339d565b60405180910390fd5b60016003600086815260200190815260200160002060008573ffffffffffffffffffffffffffffffffffffffff1673ffffffffffffffffffffffffffffffffffffffff16815260200190815260200160002060006101000a81548160ff02191690831515021790555061180161215f565b83816000019073ffffffffffffffffffffffffffffffffffffffff16908173ffffffffffffffffffffffffffffffffffffffff1681525050828160200181905250818160400190600281111561185a576118596124c2565b5b9081600281111561186e5761186d6124c2565b5b815250506008858154811061188657611885612b0a565b5b906000526020600020906008020160020181908060018154018082558091505060019003906000526020600020906003020160009091909190915060008201518160000160006101000a81548173ffffffffffffffffffffffffffffffffffffffff021916908373ffffffffffffffffffffffffffffffffffffffff160217905550602082015181600101908161191d9190613554565b5060408201518160020160006101000a81548160ff02191690836002811115611949576119486124c2565b5b02179055505050806004600087815260200190815260200160002060008673ffffffffffffffffffffffffffffffffffffffff1673ffffffffffffffffffffffffffffffffffffffff16815260200190815260200160002060008201518160000160006101000a81548173ffffffffffffffffffffffffffffffffffffffff021916908373ffffffffffffffffffffffffffffffffffffffff16021790555060208201518160010190816119fd9190613554565b5060408201518160020160006101000a81548160ff02191690836002811115611a2957611a286124c2565b5b02179055509050507faf69d7cb382b2a80c6264f6ed4b3de938dba3bbf8b4dbad0e9808c355ac87d1a81604051611a609190613676565b60405180910390a15050505050565b60008060009054906101000a900473ffffffffffffffffffffffffffffffffffffffff16905090565b60008054906101000a900473ffffffffffffffffffffffffffffffffffffffff1673ffffffffffffffffffffffffffffffffffffffff163373ffffffffffffffffffffffffffffffffffffffff1614611b26576040517f08c379a0000000000000000000000000000000000000000000000000000000008152600401611b1d90613193565b60405180910390fd5b60006003811115611b3a57611b396124c2565b5b60088381548110611b4e57611b4d612b0a565b5b906000526020600020906008020160070160149054906101000a900460ff166003811115611b7f57611b7e6124c2565b5b14611bbf576040517f08c379a0000000000000000000000000000000000000000000000000000000008152600401611bb690613233565b60405180910390fd5b600015156002600084815260200190815260200160002060008373ffffffffffffffffffffffffffffffffffffffff1673ffffffffffffffffffffffffffffffffffffffff16815260200190815260200160002060009054906101000a900460ff16151514611c63576040517f08c379a0000000000000000000000000000000000000000000000000000000008152600401611c5a90613331565b60405180910390fd5b60016002600084815260200190815260200160002060008373ffffffffffffffffffffffffffffffffffffffff1673ffffffffffffffffffffffffffffffffffffffff16815260200190815260200160002060006101000a81548160ff02191690831515021790555060006004600084815260200190815260200160002060008373ffffffffffffffffffffffffffffffffffffffff1673ffffffffffffffffffffffffffffffffffffffff1681526020019081526020016000206040518060600160405290816000820160009054906101000a900473ffffffffffffffffffffffffffffffffffffffff1673ffffffffffffffffffffffffffffffffffffffff1673ffffffffffffffffffffffffffffffffffffffff168152602001600182018054611d8f90612df3565b80601f0160208091040260200160405190810160405280929190818152602001828054611dbb90612df3565b8015611e085780601f10611ddd57610100808354040283529160200191611e08565b820191906000526020600020905b815481529060010190602001808311611deb57829003601f168201915b505050505081526020016002820160009054906101000a900460ff166002811115611e3657611e356124c2565b5b6002811115611e4857611e476124c2565b5b81525050905060088381548110611e6257611e61612b0a565b5b906000526020600020906008020160010181908060018154018082558091505060019003906000526020600020906003020160009091909190915060008201518160000160006101000a81548173ffffffffffffffffffffffffffffffffffffffff021916908373ffffffffffffffffffffffffffffffffffffffff1602179055506020820151816001019081611ef99190613554565b5060408201518160020160006101000a81548160ff02191690836002811115611f2557611f246124c2565b5b021790555050507f2181ea2d1996832cbd4b2821ad5879e9c032813c2a26009e1206262d0e1ede0381604051611f5b9190613676565b60405180910390a1505050565b8042611f749190612d05565b60088381548110611f8857611f87612b0a565b5b9060005260206000209060080201600301819055505050565b8042611fad9190612d05565b60088381548110611fc157611fc0612b0a565b5b9060005260206000209060080201600401819055505050565b8280548282559060005260206000209060030281019282156120da5760005260206000209160030282015b828111156120d95782826000820160009054906101000a900473ffffffffffffffffffffffffffffffffffffffff168160000160006101000a81548173ffffffffffffffffffffffffffffffffffffffff021916908373ffffffffffffffffffffffffffffffffffffffff1602179055506001820181600101908161208a91906136ae565b506002820160009054906101000a900460ff168160020160006101000a81548160ff021916908360028111156120c3576120c26124c2565b5b0217905550505091600301919060030190612005565b5b5090506120e791906121a8565b5090565b60405180610120016040528060008152602001606081526020016060815260200160008152602001600081526020016000815260200160008152602001600073ffffffffffffffffffffffffffffffffffffffff16815260200160006003811115612159576121586124c2565b5b81525090565b6040518060600160405280600073ffffffffffffffffffffffffffffffffffffffff16815260200160608152602001600060028111156121a2576121a16124c2565b5b81525090565b5b8082111561220657600080820160006101000a81549073ffffffffffffffffffffffffffffffffffffffff02191690556001820160006121e9919061220a565b6002820160006101000a81549060ff0219169055506003016121a9565b5090565b50805461221690612df3565b6000825580601f106122285750612247565b601f016020900490600052602060002090810190612246919061224a565b5b50565b5b8082111561226357600081600090555060010161224b565b5090565b6000604051905090565b600080fd5b600080fd5b6000819050919050565b61228e8161227b565b811461229957600080fd5b50565b6000813590506122ab81612285565b92915050565b600073ffffffffffffffffffffffffffffffffffffffff82169050919050565b60006122dc826122b1565b9050919050565b6122ec816122d1565b81146122f757600080fd5b50565b600081359050612309816122e3565b92915050565b6000806040838503121561232657612325612271565b5b60006123348582860161229c565b9250506020612345858286016122fa565b9150509250929050565b60006020828403121561236557612364612271565b5b60006123738482850161229c565b91505092915050565b6000806040838503121561239357612392612271565b5b60006123a18582860161229c565b92505060206123b28582860161229c565b9150509250929050565b600081519050919050565b600082825260208201905092915050565b6000819050602082019050919050565b6123f18161227b565b82525050565b600081519050919050565b600082825260208201905092915050565b6000819050602082019050919050565b61242c816122d1565b82525050565b600081519050919050565b600082825260208201905092915050565b60005b8381101561246c578082015181840152602081019050612451565b60008484015250505050565b6000601f19601f8301169050919050565b600061249482612432565b61249e818561243d565b93506124ae81856020860161244e565b6124b781612478565b840191505092915050565b7f4e487b7100000000000000000000000000000000000000000000000000000000600052602160045260246000fd5b60038110612502576125016124c2565b5b50565b6000819050612513826124f1565b919050565b600061252382612505565b9050919050565b61253381612518565b82525050565b60006060830160008301516125516000860182612423565b50602083015184820360208601526125698282612489565b915050604083015161257e604086018261252a565b508091505092915050565b60006125958383612539565b905092915050565b6000602082019050919050565b60006125b5826123f7565b6125bf8185612402565b9350836020820285016125d185612413565b8060005b8581101561260d57848403895281516125ee8582612589565b94506125f98361259d565b925060208a019950506001810190506125d5565b50829750879550505050505092915050565b600481106126305761262f6124c2565b5b50565b60008190506126418261261f565b919050565b600061265182612633565b9050919050565b61266181612646565b82525050565b60006101208301600083015161268060008601826123e8565b506020830151848203602086015261269882826125aa565b915050604083015184820360408601526126b282826125aa565b91505060608301516126c760608601826123e8565b5060808301516126da60808601826123e8565b5060a08301516126ed60a08601826123e8565b5060c083015161270060c08601826123e8565b5060e083015161271360e0860182612423565b50610100830151612728610100860182612658565b508091505092915050565b600061273f8383612667565b905092915050565b6000602082019050919050565b600061275f826123bc565b61276981856123c7565b93508360208202850161277b856123d8565b8060005b858110156127b757848403895281516127988582612733565b94506127a383612747565b925060208a0199505060018101905061277f565b50829750879550505050505092915050565b600060208201905081810360008301526127e38184612754565b905092915050565b6127f48161227b565b82525050565b600060208201905061280f60008301846127eb565b92915050565b60006101208301600083015161282e60008601826123e8565b506020830151848203602086015261284682826125aa565b9150506040830151848203604086015261286082826125aa565b915050606083015161287560608601826123e8565b50608083015161288860808601826123e8565b5060a083015161289b60a08601826123e8565b5060c08301516128ae60c08601826123e8565b5060e08301516128c160e0860182612423565b506101008301516128d6610100860182612658565b508091505092915050565b600060208201905081810360008301526128fb8184612815565b905092915050565b600080fd5b600080fd5b7f4e487b7100000000000000000000000000000000000000000000000000000000600052604160045260246000fd5b61294582612478565b810181811067ffffffffffffffff821117156129645761296361290d565b5b80604052505050565b6000612977612267565b9050612983828261293c565b919050565b600067ffffffffffffffff8211156129a3576129a261290d565b5b6129ac82612478565b9050602081019050919050565b82818337600083830152505050565b60006129db6129d684612988565b61296d565b9050828152602081018484840111156129f7576129f6612908565b5b612a028482856129b9565b509392505050565b600082601f830112612a1f57612a1e612903565b5b8135612a2f8482602086016129c8565b91505092915050565b60038110612a4557600080fd5b50565b600081359050612a5781612a38565b92915050565b60008060008060808587031215612a7757612a76612271565b5b6000612a858782880161229c565b9450506020612a96878288016122fa565b935050604085013567ffffffffffffffff811115612ab757612ab6612276565b5b612ac387828801612a0a565b9250506060612ad487828801612a48565b91505092959194509250565b612ae9816122d1565b82525050565b6000602082019050612b046000830184612ae0565b92915050565b7f4e487b7100000000000000000000000000000000000000000000000000000000600052603260045260246000fd5b600082825260208201905092915050565b7f456c656374696f6e207374617465206d757374206265204f6e676f696e670000600082015250565b6000612b80601e83612b39565b9150612b8b82612b4a565b602082019050919050565b60006020820190508181036000830152612baf81612b73565b9050919050565b7f43616e6469646174652063616e206e6f7420766f746500000000000000000000600082015250565b6000612bec601683612b39565b9150612bf782612bb6565b602082019050919050565b60006020820190508181036000830152612c1b81612bdf565b9050919050565b7f596f75206861766520616c726561647920766f74656400000000000000000000600082015250565b6000612c58601683612b39565b9150612c6382612c22565b602082019050919050565b60006020820190508181036000830152612c8781612c4b565b9050919050565b7f4e487b7100000000000000000000000000000000000000000000000000000000600052601160045260246000fd5b6000612cc88261227b565b91507fffffffffffffffffffffffffffffffffffffffffffffffffffffffffffffffff8203612cfa57612cf9612c8e565b5b600182019050919050565b6000612d108261227b565b9150612d1b8361227b565b9250828201905080821115612d3357612d32612c8e565b5b92915050565b60008160001c9050919050565b6000819050919050565b6000612d63612d5e83612d39565b612d46565b9050919050565b600081549050919050565b60008190508160005260206000209050919050565b600073ffffffffffffffffffffffffffffffffffffffff82169050919050565b6000612dbd612db883612d39565b612d8a565b9050919050565b7f4e487b7100000000000000000000000000000000000000000000000000000000600052602260045260246000fd5b60006002820490506001821680612e0b57607f821691505b602082108103612e1e57612e1d612dc4565b5b50919050565b60008190508160005260206000209050919050565b60008154612e4681612df3565b612e50818661243d565b94506001821660008114612e6b5760018114612e8157612eb4565b60ff198316865281151560200286019350612eb4565b612e8a85612e24565b60005b83811015612eac57815481890152600182019150602081019050612e8d565b808801955050505b50505092915050565b600060ff82169050919050565b6000612edd612ed883612d39565b612ebd565b9050919050565b6000606083016000808401549050612efb81612daa565b612f086000870182612423565b50600184018583036020870152612f1f8382612e39565b92505060028401549050612f3281612eca565b612f3f604087018261252a565b50819250505092915050565b6000612f578383612ee4565b905092915050565b6000600382019050919050565b6000612f7782612d6a565b612f818185612402565b935083602082028501612f9385612d75565b8060005b85811015612fce57848403895281612faf8582612f4b565b9450612fba83612f5f565b925060208a01995050600181019050612f97565b50829750879550505050505092915050565b60008160a01c9050919050565b600060ff82169050919050565b600061300d61300883612fe0565b612fed565b9050919050565b60006101208301600080840154905061302c81612d50565b61303960008701826123e8565b506001840185830360208701526130508382612f6c565b9250506002840185830360408701526130698382612f6c565b9250506003840154905061307c81612d50565b61308960608701826123e8565b506004840154905061309a81612d50565b6130a760808701826123e8565b50600584015490506130b881612d50565b6130c560a08701826123e8565b50600684015490506130d681612d50565b6130e360c08701826123e8565b50600784015490506130f481612daa565b61310160e0870182612423565b5061310b81612ffa565b613119610100870182612658565b50819250505092915050565b6000602082019050818103600083015261313f8184613014565b905092915050565b7f596f7520617265206e6f7420417574686f72697a656400000000000000000000600082015250565b600061317d601683612b39565b915061318882613147565b602082019050919050565b600060208201905081810360008301526131ac81613170565b9050919050565b60006131be8261227b565b91506131c98361227b565b92508282039050818111156131e1576131e0612c8e565b5b92915050565b7f456c656374696f6e207374617465206d75737420626520437265617465640000600082015250565b600061321d601e83612b39565b9150613228826131e7565b602082019050919050565b6000602082019050818103600083015261324c81613210565b9050919050565b7f4e6f7420656e6f7567682043616e646964617465730000000000000000000000600082015250565b6000613289601583612b39565b915061329482613253565b602082019050919050565b600060208201905081810360008301526132b88161327c565b9050919050565b7f596f752061726520616c726561647920612043616e64696461746520696e207460008201527f68697320456c656374696f6e0000000000000000000000000000000000000000602082015250565b600061331b602c83612b39565b9150613326826132bf565b604082019050919050565b6000602082019050818103600083015261334a8161330e565b9050919050565b7f596f75206861766520416c726561647920526571756573746564000000000000600082015250565b6000613387601a83612b39565b915061339282613351565b602082019050919050565b600060208201905081810360008301526133b68161337a565b9050919050565b60006020601f8301049050919050565b600082821b905092915050565b60006008830261340a7fffffffffffffffffffffffffffffffffffffffffffffffffffffffffffffffff826133cd565b61341486836133cd565b95508019841693508086168417925050509392505050565b6000819050919050565b600061345161344c6134478461227b565b61342c565b61227b565b9050919050565b6000819050919050565b61346b83613436565b61347f61347782613458565b8484546133da565b825550505050565b600090565b613494613487565b61349f818484613462565b505050565b5b818110156134c3576134b860008261348c565b6001810190506134a5565b5050565b601f821115613508576134d981612e24565b6134e2846133bd565b810160208510156134f1578190505b6135056134fd856133bd565b8301826134a4565b50505b505050565b600082821c905092915050565b600061352b6000198460080261350d565b1980831691505092915050565b6000613544838361351a565b9150826002028217905092915050565b61355d82612432565b67ffffffffffffffff8111156135765761357561290d565b5b6135808254612df3565b61358b8282856134c7565b600060209050601f8311600181146135be57600084156135ac578287015190505b6135b68582613538565b86555061361e565b601f1984166135cc86612e24565b60005b828110156135f4578489015182556001820191506020850194506020810190506135cf565b86831015613611578489015161360d601f89168261351a565b8355505b6001600288020188555050505b505050505050565b600060608301600083015161363e6000860182612423565b50602083015184820360208601526136568282612489565b915050604083015161366b604086018261252a565b508091505092915050565b600060208201905081810360008301526136908184613626565b905092915050565b6000815490506136a781612df3565b9050919050565b8181036136bc575050613794565b6136c582613698565b67ffffffffffffffff8111156136de576136dd61290d565b5b6136e88254612df3565b6136f38282856134c7565b6000601f8311600181146137225760008415613710578287015490505b61371a8582613538565b86555061378d565b601f19841661373087612e24565b965061373b86612e24565b60005b828110156137635784890154825560018201915060018501945060208101905061373e565b86831015613780578489015461377c601f89168261351a565b8355505b6001600288020188555050505b5050505050505b56fea26469706673582212207d4f1a382ab0f9f058348848306a86117f238c993a5bed64da2b544127ef6b1f64736f6c63430008110033",
  "linkReferences": {},
  "deployedLinkReferences": {}
}